:1000000000308A0019280000133084008313000890
:100010000319182801308D008C018C0B0D288D0BD5
:100020000C284A308C008C0B13281628800B0A28C9
:100030000034840183131F308305E83092000030C0
:1000400066006500831686018312860192080319F3
:100050003B28831685010630831285001208930021
:100060000420831685018312850112089300042061
:0E007000053092022628E83092002628630010
:02400E00F93F78
:00000001FF
;PIC16F84A
