:1000000000308A00192800001D3084008313000886
:100010000319182801308D008C018C0B0D288D0BD5
:100020000C284A308C008C0B13281628800B0A28C9
:100030004A28840183131F30830512309100BC309D
:100040009200B6309300D2309400E6309500EE3046
:10005000960032309700FE309800F63099007E30DE
:100060009A009B010030650066009B011B08093C5B
:10007000031C4F2811301B078400831300089C00C9
:100080008316860183121C08860004309C00FA3017
:100090009D0004289C0B472802309B0736283528F2
:0200A0006300FB
:02400E00F93F78
:00000001FF
;PIC16F84A
