:1000000000308A00192800001D3084008313000886
:100010000319182801308D008C018C0B0D288D0BD5
:100020000C284A308C008C0B13281628800B0A28C9
:100030004D28840183131F30830583168511831295
:1000400085157E30910012309200BC309300B6309E
:100050009400D2309500E6309600EE3097003230B2
:100060009800FE309900F2309A0001309B00003079
:1000700065000130660001309B001B08093C031C31
:100080005C28831606148312061C502802309B0736
:1000900004309C00FA309D0004289C0B4A285B2801
:1000A00011301B078400831300089C00831686010F
:0C00B00083121C0886003D283B286300DA
:02400E00F93F78
:00000001FF
;PIC16F84A
