:1000000000308A0019280000133084008313000890
:100010000319182801308D008C018C0B0D288D0BD5
:100020000C284A308C008C0B13281628800B0A28C9
:100030000034840183131F30830583160108C739F8
:1000400008388100003065006600850104308312A5
:10005000850083168601E630831286000430920004
:10006000FA3093000420920B302883168601D23098
:100070008312860004309200FA3093000420920B21
:100080003C2883168601B630831286000430920025
:10009000FA3093000420920B482883168601BC3066
:1000A0008312860004309200FA3093000420920BF1
:1000B0005428831686011230831286000430920081
:1000C000FA3093000420920B602883168601831275
:1000D0008601831685010830831285009200FA306C
:1000E00093000420920B6F2883168501133083122E
:1000F000850083168601E630831286000430920064
:10010000FA3093000420920B802883168601D230A7
:100110008312860004309200FA3093000420920B80
:100120008C2883168601B630831286000430920034
:10013000FA3093000420920B982883168601BC3075
:100140008312860004309200FA3093000420920B50
:10015000A428831686011230831286000430920090
:10016000FA3093000420920BB02883168601831284
:100170008601831685010830831285009200FA30CB
:0E01800093000420920BBF28831625286300ED
:02400E00F93F78
:00000001FF
;PIC16F84A
