:1000000000308A0019280000133084008313000890
:100010000319182801308D008C018C0B0D288D0BD5
:100020000C284A308C008C0B13281628800B0A28C9
:100030000034840183131F308305003065003C3099
:100040006600001C2C2883168610831286108316E7
:100050000611831206117E28001C3728831686108D
:100060008312861083160611831206117E28801CC7
:100070004228831686108312861083160611831277
:1000800006117E28001C4D288316861083128610C8
:1000900083160611831206117E2883168615831295
:1000A000861D662883160611831206118316861094
:1000B0008312861402309200963093000420920B33
:1000C0005C2883168610831286107E2883160616F7
:1000D0008312061E7E2883168610831286108316CE
:1000E0000611831206150230920096309300042008
:1000F000920B7528831606118312061121286300BE
:02400E00F13F80
:00000001FF
;PIC16F84A
