:1000000000308A00AF2800002508960024089500DB
:100010002308940022089300D4282030AE00AA01BF
:10002000AB01AC01AD0125088F0024088E00230828
:100030008D0022088C0003100C1C2C282608AA070F
:1000400027080318270FAB0728080318280FAC0749
:1000500029080318290FAD07AD0CAC0CAB0CAA0C8A
:100060008F0C8E0C8D0C8C0CAE0B1B286D288D010B
:100070008E018C018F012808031D412827080319D0
:100080005B281030A9000310A50DA60D8C0D8F0D57
:1000900028080F02031D4E2827080C02031C5728AE
:1000A00027088C02031C8F0328088F0203148D0D70
:1000B0008E0DA90B432895281608A5001508A40045
:1000C0001408A3001308A2004130A900C630A800FC
:1000D0004E30A7006D30A6000D2839300C07930074
:1000E0000D08940030300318313094070E08950045
:1000F00000300318013095070F08960000300318F0
:100100000130960715088C0016088D008E018F01AE
:100110001608A4001508A3001608A6001508A500D7
:100120007F30A800FF30A70037280C088D000F088B
:100130008E00D52823308400831300080319AE28CD
:1001400001308D008C018C0BA3288D0BA2284A3026
:100150008C008C0BA928AC28800BA028E7288401F0
:1001600083131F308305910192017E309700123076
:100170009800BC309900B6309A00D2309B00E6302F
:100180009C00EE309D0032309E00FE309F00F23029
:10019000A000A1010030650001306600A501A401A6
:1001A000A3010A30A20004285C280D08A100173022
:1001B0002107840083130008A2008316860183129E
:1001C000220886000430A200FA30A3009A28A20B6D
:0601D000E428D4286300BE
:02400E00F93F78
:00000001FF
;PIC16F84A
